:040000002CEF09F0E8
:08000800046ED8CF05F0E0CF33
:1000100006F00001E9CF0CF0EACF07F0E1CF08F0DD
:10002000E2CF09F0D9CF0AF0DACF0BF0F3CF12F01C
:10003000F4CF13F0FACF14F0F5CF15F0F6CF16F099
:10004000F7CF17F000C00EF001C00FF002C010F0A3
:1000500003C011F0F2AA30EF00F0F2B4DDEF01F0CE
:10006000A0A236EF00F0A1B279EF01F09DAA3CEF1B
:1000700000F09EBA14EF02F0A3AA42EF00F0A4BA77
:10008000CDEF01F00EC000F00FC001F010C002F083
:1000900011C003F00CC0E9FF07C0EAFF078E08C0DB
:1000A000E1FF09C0E2FF0AC0D9FF0BC0DAFF12C0AE
:1000B000F3FF13C0F4FF14C0FAFF15C0F5FF16C01C
:1000C000F6FF17C0F7FF045006C0E0FF05C0D8FFD9
:1000D0001000F76AE20FF66E000EF7220900F550E5
:1000E000120000C1814001C0804101C0804100C1B7
:1000F000814001C0804100C1814000C1814001C0F8
:10010000804101C0804100C1814000C1814001C0E7
:10011000804100C1814001C0804101C0804100C1D7
:10012000814001C0804100C1814000C1814001C0C7
:10013000804100C1814001C0804101C0804100C1B7
:10014000814000C1814001C0804101C0804100C1A7
:10015000814001C0804100C1814000C1814001C097
:10016000804101C0804100C1814000C1814001C087
:10017000804100C1814001C0804101C0804100C177
:10018000814000C1814001C0804101C0804100C167
:10019000814001C0804100C1814000C1814001C057
:1001A000804100C1814001C0804101C0804100C147
:1001B000814001C0804100C1814000C1814001C037
:1001C000804101C0804100C1814000C1814001C027
:1001D000804100C1814001C0804101C0804100C117
:1001E0008140F76AF20FF66E010EF7220900F55012
:1001F000120000C0C101C30302C2C60607C705C57D
:10020000C404CC0C0DCD0FCFCE0E0ACACB0BC9093E
:1002100008C8D81819D91BDBDA1A1EDEDF1FDD1D4E
:100220001CDC14D4D515D71716D6D21213D311D17E
:10023000D010F03031F133F3F23236F6F737F535CE
:1002400034F43CFCFD3DFF3F3EFEFA3A3BFB39F9FE
:10025000F83828E8E929EB2B2AEAEE2E2FEF2DEDCE
:10026000EC2CE42425E527E7E62622E2E323E1213E
:1002700020E0A06061A163A3A26266A6A767A5654E
:1002800064A46CACAD6DAF6F6EAEAA6A6BAB69A9BE
:10029000A86878B8B979BB7B7ABABE7E7FBF7DBDCE
:1002A000BC7CB47475B577B7B67672B2B373B171FE
:1002B00070B05090915193535292965657975595CE
:1002C00094549C5C5D9D5F9F9E5E5A9A9B5B99597E
:1002D0005898884849894B8B8A4A4E8E8F4F8D4D4E
:1002E0004C8C4484854587474686824243834181BE
:1002F0008040B10EB36EE00EB26EE1C0DAF0020ED5
:10030000E127E1510F0801E2E16B010ED86F935133
:10031000FF0809E303E19251F40805E30A0E92276E
:10032000000E932302D093699269DF2BD8B4E02B9F
:10033000E05303E1DF51630802E2E06BDF6BDD2B8A
:10034000D8B4DE2BDD5170080DE1DE5117080AE14B
:10035000DE6BDD6B903D03D0913D01D003D0902B3F
:10036000D8B4912BDB5303E1939A8A9A03D0939AE2
:100370008A8ADB07DC5301E101D0DC07A19242EF5E
:1003800000F0A4AAFED7A6CF20F07ACF01F020A2D9
:1003900002D0A698A688CEEF01F0F3D701C0D9F01D
:1003A000A49A42EF00F0F29A0601465304E0D76A9D
:1003B000D66AF294F28A00011200E35102080AE1BF
:1003C000E45308E1E55306E1E2B104D0020EE75F31
:1003D000E28101D0E291E569E469E36B0601466BD5
:1003E0000001E1DFF29442EF00F09EAAFED7ABCF0E
:1003F00020F0AECF01F020A202D0AB98AB88120063
:10040000E55106014619476F036A4751000161DE55
:10041000016EE4510118E56F036A060147510001BE
:10042000E0DEE46F3CEF02F0E0DF01C045F6E2B150
:1004300028D0E35308E1E569E46945C6E6F0E32B1B
:10044000E76BE96B16D0E32D04D045C6E8F0E32B4B
:1004500010D0E35102080DE1E73D02D0FE0EE76F38
:10046000EA0EE725E96EEA6AD8B0EA2A45C6EFFF48
:10047000E72B45C646F6C4D7010E0601466F0001BC
:1004800092DF9E9A42EF00F0232064637377634902
:10049000324320282563256C75292073746172749A
:1004A00020757020286473333020626F6F746C6F16
:1004B0006164657220737570706F7274292028777B
:1004C0006F726C64446174612073747265616D292C
:1004D00020286D6F64627573206164647265737344
:1004E0003D2575292025730D0A0031332D4A616E93
:1004F0002D323200232074657374696E6720616445
:10050000647265737320307825303278202E2E2E59
:10051000000020676F742061636B210D0A002320A7
:10052000526F636B424C4F434B20736179733A2097
:10053000272563270D0A00002320796F752073613A
:10054000696420272563270D0A0023207265672030
:10055000616464725B3078253032785D3D30782597
:1005600030346C782028256C75290D0A000093988A
:100570008A8893908A801200C69E9E9626C6C9FFDE
:10058000020EC6BE05D09EA6FED7000EC5BC010E4B
:10059000016E1200C580C5B0FED70400090E006EC2
:1005A000002EFED700009A0E0601266F0001E4DF40
:1005B00006012335256F25372537F80E251725C663
:1005C00026F60001D9DF24C626F6D6DFC584C5B4D9
:1005D000FED71200030E0601236F800E246F000168
:1005E000D9DF0601236B22C624F60001D3DF010EFA
:1005F0000601236F246B0001CDDF030E0601236F7C
:10060000BF0E246F0001C6DF020E0601236F100E1D
:10061000246F0001BFDF030E0601236F246F00016A
:10062000B9DF010E0601236F246B0001B3DF020E58
:100630000601236F070E246F0001ACDFE1EF03F02A
:10064000060EEA6E220EE96EEF5011E0020E016E08
:10065000BF0E006E0400002EFDD7012EF9D7960EB6
:10066000006E002EFED700D00400EF2EEFD7E6EF8D
:1006700003F0600ED36E9B6A646A0F015C51800BBD
:100680005C6F000E5D6FC196C198C19AD1805D69A3
:100690001F0E5C6FF00EBB1650174D174A17471709
:1006A000949A8B9A0001DB6BDC6B896B886B8B6B8C
:1006B0008A6B8D6B8C6B8F6B8E6B916B906B936B6E
:1006C000926B946BD96B0601216B2151040869E38D
:1006D000D8902135036ABA0F016E000E032201C0C3
:1006E00022F603C023F62151100DF350036A060FC2
:1006F000246F000E0320256F070E2425016E000EC7
:100700002521036E0150210FE96E000E0320EA6ED1
:10071000ECCF03F0ED52EFCF24F623C6EAFF22C65A
:10072000E9FF03C0ECFFED5224C6EFFFD89021355E
:10073000036AC40F016E000E032201C022F603C03B
:1007400023F62151100DF350036A060F246F000E9B
:100750000320256F030E2425016E000E2521036E54
:100760000150210FE96E000E0320EA6EECCF03F07A
:10077000ED52EFCF24F623C6EAFF22C6E9FF03C0FD
:10078000ECFFED5224C6EFFFD8902135036ACE0F5F
:10079000E96E000E0320EA6EEC6AED52EF6A212B3F
:1007A00094D7B06A070EB16EB10EB36EE00EB26EA2
:1007B000A082A38A0001DBDE060E0601226F000183
:1007C00009D70E0E0601226F00013AD78FEF09F00C
:1007D00006012A6B29C62CF62851D8B42907280708
:1007E0002B6F2B5302E12C5332E027C603F0265126
:1007F000E96E03C0EAFF2551036E2451242BD8B4BF
:10080000252B2D6F03C02EF6F2CF2FF6F29E2EC6AB
:1008100075FF2DC674FF7F9C7F9E7F8073502FBF16
:10082000F28EEF6E27C603F02651E96E03C0EAFF91
:10083000EFCF2BF62AC62EF62BC62FF62E512F19E8
:10084000016E01C02AF6262BD8B4272BC3D72AC69F
:1008500001F00001C0EF05F006012C6B2BC62EF64F
:100860002A51D8B42B072A072D6F2D5302E12E539E
:100870003EE029C603F02851E96E03C0EAFFEFCF3E
:100880002DF62CC62EF62DC62FF62E512F19016EE1
:1008900001C02CF62751036E2651262BD8B4272BE6
:1008A0002D6F03C02EF62951036E2851282BD8B482
:1008B000292BE96E03C0EAFFEFCF2FF6F250006E4E
:1008C000F29E2EC675FF2DC674FF2FC673FF7F9C48
:1008D0007F9E7F840F01550E7E6EAA0E7E6E7F82F4
:1008E0007FB2FED77F940050F2120601B7D72CC614
:1008F00001F000018AEF04F00601210E246F276B3E
:10090000020E266F296B24C628F62B6B670E2A6F02
:100910000001A2D701C023F6F250006EF29E756A64
:10092000746A23C673FF7F9C7F9E7F840F01550EE0
:100930007E6EAA0E7E6E7F827FB2FED77F940050BD
:10094000F2120001B1EF05F0960EDB6F610E216E21
:10095000250E226E236A5A0E246E080E266EAD0EE8
:10096000256E0601226B22510408D8A0EAD022513C
:10097000100DF350036A270FE96E000E0320EA6E94
:10098000EF6A2251100DF350036A060F236F000E19
:100990000320246F0E0E2325016E000E2421036E0A
:1009A0000150210FE96E000E0320EA6ED890223527
:1009B000EF6E2251100DF350036A060F236F000EE5
:1009C0000320246F010E2325016E000E2421036EE7
:1009D0000150210FE96E000E0320EA6E010EEC6E4D
:1009E000ED52F40EEF6E2251100DF350036A060F14
:1009F000236F000E0320246F030E2325016E000ECB
:100A00002421036E0150210FE96E000E0320EA6ECF
:100A1000010EEC6EED52F40EEF6E2251100DF350FC
:100A2000036A060F236F000E0320246F050E232593
:100A3000016E000E2421036E0150210FE96E000E9D
:100A40000320EA6E020EEC6EED52BC0EEF6E2251E8
:100A5000100DF350036A060F236F000E0320246F5E
:100A6000070E2325016E000E2421036E0150210F75
:100A7000E96E000E0320EA6E030EEC6EED52E80EF6
:100A8000EF6E2251100DF350036A060F236F000E14
:100A90000320246F090E2325016E000E2421036E0E
:100AA0000150210FE96E000E0320EA6E010EEC6E7C
:100AB000ED522C0EEF6E2251100DF350036A060F0B
:100AC000236F000E0320246F0B0E2325016E000EF2
:100AD0002421036E0150210FE96E000E0320EA6EFF
:100AE000EC6AED52EF6A2251100DF350036A060FC3
:100AF000236F000E0320246F0D0E2325016E000EC0
:100B00002421036E0150210FE96E000E0320EA6ECE
:100B1000EF6A2251100DF350036A060F236F000E87
:100B20000320246F0F0E2325016E000E2421036E77
:100B30000150210FE96E000E0320EA6EEF6A222BAE
:100B400012D7226B22510F080AE3036A2251770F52
:100B5000E96E000E0320EA6EEF6A222BF3D7000144
:100B6000CBD612000601210E226F256B020E246FD8
:100B7000276B22C626F6296B670E286F000128D640
:100B800001C021F6F2CF22F6F29E756A746A7F9C4C
:100B90007F9E7F807350060122BFF28E215D06E1A9
:100BA0002150600803E221507A0803E20001CCDE04
:100BB0000601000190EF09F09EAA02D016DCFCD7D6
:100BC000AE50949A8B9A9D8AE7EF05F0F5D7C40E44
:100BD000D56EC00EF21299EF09F093968A96939211
:100BE0008A8206012351070803E393908A9004D078
:100BF00093988A98080E235F235303E1030E276F0F
:100C000025D0232D03D0130E276F20D023510208A7
:100C100003E10B0E276F1AD02351030803E11B0ECB
:100C2000276F14D02351040803E1070E276F0ED05D
:100C30002351050803E1170E276F08D0235106083A
:100C400003E10F0E276F02D01F0E276F266B265170
:100C500004080EE393968A9627B102D08A9201D0B7
:100C60008A829392D890273393968A86262BEFD741
:100C7000256B246B266B26510D080EE393968A96FE
:100C8000938481B402D0D89001D0D88024372537FE
:100C900093968A86262BEFD7259B2599000167DC42
:100CA000060124C601F025C602F00001B1EF09F0EB
:100CB000060131513303F3CF01F0F4CF00F03403D8
:100CC000F350002632513303F3500020026E00012E
:100CD0001200D8B204D0060EEA6E400EE96E006A29
:100CE000016A026A036A0601406B416B426B436B07
:100CF0003F513E113D113C112CE0200E446FD89025
:100D0000383739373A373B3740374137423743373F
:100D10003F51435D08E13E51425D05E13D51415D7A
:100D200002E13C51405D0FE33C51405F3D51D8A092
:100D30003D3D415F3E51D8A03E3D425F3F51D8A06E
:100D40003F3D435FD8800036013602360336442FDC
:100D5000D6D740C6EFFF41C6ECFF42C6ECFF43C604
:100D6000ECFF00017AEF07F00601326B25C631F681
:100D7000346B200E336F00019BDF02C032F601C0DE
:100D800031F6036A06012551E90FE96E030E0320CF
:100D9000EA6E036AEFCF02F0D890023603360250B3
:100DA0000124016E325103220150E90FE96E010E58
:100DB0000320EA6E27C6ECFFED5226C6EFFF036A5A
:100DC0002551E90FE96E030E0320EA6EEF2A036A4C
:100DD0002551E90FE96E030E0320EA6EEF500F086C
:100DE00008E2036A2551E90FE96E030E0320EA6E5B
:100DF000EF6A036A2551F90FE96E030E0320EA6ECC
:100E0000EF500F0808E3036A2551F90FE96E030E4E
:100E10000320EA6EEF2A2F6B2E6B2D6B2C6B306B41
:100E2000036A2551F90FE96E030E0320EA6EEF50B5
:100E3000305D2AE2326B25C631F6346B200E336FFB
:100E4000000136DF02C032F601C031F6036A060146
:100E500030C602F0D8900236033602500124016EEB
:100E6000325103220150E90FE96E010E0320EA6EB0
:100E7000ECCF03F0ED52EF502C2703502D23000E42
:100E80002E232F23302BCCD7036A2551F90FE96E7F
:100E9000030E0320EA6EEFCF31F6D8903131006EA9
:100EA000016A026A036A00502C25316F01502D211E
:100EB000326F02502E21336F03502F21346F036A9B
:100EC0002551F90FE96E030E0320EA6EEFCF3CF6D1
:100ED000EACF37F6E9CF36F6D89234C63BF633C6BA
:100EE0003AF632C639F631C638F63F6B3E6B3D6B8B
:100EF0000001EFD637C6EAFF36C6E9FF03C02BF67E
:100F000002C02AF601C029F600C028F6060128C64C
:100F100001F029C602F00001CDEF09F00900F6CF7B
:100F200023F6F7CF24F6F550A4A8FED7796E23C692
:100F3000F6FF24C6F7FF0601222F01D002D00001E0
:100F4000EDD700011200EACF29F6E9CF28F6060115
:100F50002239F009246F2427E20F256F320F276F03
:100F600022510F0B252725272727E90F266F262734
:100F7000262721390F0B2627272726372737271F14
:100F8000273721510F0B27272437070E236F0A0E0F
:100F900026072727FDE325072627FDE32407252726
:100FA000FDE323072427FDE3060EEA6E230EE96E18
:100FB000070E2815289DE926000EEA22E950270889
:100FC00004E1EA50060801E1288DEF50006E08E1C7
:100FD00028BD06D028B90CD028B702D0200E03D0E7
:100FE00028872899300E00260050A4A8FED7796ED5
:100FF000EE5028ADE3D70001120006012451016A2A
:10100000235D03E223C600F00CD0006A080E256FB2
:10101000233700362451005CD8B0006E0136252FEE
:10102000F7D700011200015021C623F6640E060115
:10103000246F0001E2DF00C021F60150300E08E10C
:10104000060122A30ED022B70CD022B9200E04D064
:10105000060122972299228101260150A4A8FED7D9
:10106000796E21C623F60A0E246F0001C6DF00C088
:1010700021F60150300E08E1060122B70BD022A163
:1010800009D022B9200E000101260150A4A8FED7E4
:10109000796E0601300E21272151A4A8FED7796E62
:1010A0000001FEEF09F00900F5520DE0F6CF21F640
:1010B000F7CF22F6F550A4A8FED7796E21C6F6FF29
:1010C00022C6F7FFF0D71200C580C5B0FED721C6F3
:1010D00026F6BCEC02F001C022F6C584C5B4FED7EA
:1010E0000601225303E1010E016E02D0000E016ED3
:1010F00000011200060122BF10D00F0E006E213930
:1011000000160A0E005C03E2300E002602D02251C7
:1011100000260050A4A8FED7796E0F0E21170A0EE4
:10112000215D02E2300E02D0229F2251212721515F
:10113000A4A8FED7796E00011200C69CC586C5B66C
:10114000FED700B0C59A00A0C58AC588C5B8FED72D
:10115000C9CF01F01200C580C5B0FED70400090E4A
:10116000006E002EFED700009A0E0601266F0001C9
:10117000BCEC02F006012135236F23372337F80E2C
:10118000231723C626F60001BCEC02F0C582C5B2C7
:10119000FED70400090E006E002EFED700009B0E45
:1011A0000601266F0001BCEC02F0006AC6DF01C038
:1011B00022F6C584C5B4FED7060122C601F000019F
:1011C0001200050E0601216F0001C5DF0150010B61
:1011D000016E51EF0AF00601236B21C624F60001CF
:1011E000CAEC02F092EF0AF0C580C5B0FED7040049
:1011F000090E006E002EFED7000021C626F6BCECBC
:1012000002F022C626F6BCEC02F0C582C5B2FED7BB
:101210000400090E006E002EFED7000006012151C9
:101220000109256F266F0001BCEC02F0010E006E73
:1012300084DF01C023F6006A80DF01C024F6C58484
:10124000C5B4FED723C603F0060124C601F003C0CF
:1012500002F000019EEF0AF0F86AD09E078E620E3F
:10126000D36E9B6A646A206AA7960C0EAF6EA20EBC
:10127000AC6E900EAB6EB986220E7B6E000E7C6E4D
:10128000A60EBA6E900EA66E94869488040EC86E52
:10129000280EC66EC79EC79CE291E36B06011A6BCF
:1012A000196B0F015C51800B5C6F000E5D6FC19676
:1012B000C198C19A5E6B5F6B0DD002001A0000C12D
:1012C000402100FF41E900FFC000FFC000FFC00057
:1012D00034C00000000EF86E120EF76EBA0EF66EF5
:1012E0000900F550006E000A13E00900F550016E88
:1012F000E8BE05D03F0BEA6E0900F5CFE9FF01BC5F
:10130000090001AC0900F5CFEEFF004EE9D7F9D78F
:10131000F86A0601206B1F6B000139EF03F022D43D
:1013200022507F0802E2A4EC04F0AB8EAB88AC8ABA
:101330004DD406011B6B1B5113083DE31C6B1C5164
:101340000F0837E3D8901C35036A9A0F016E000E20
:10135000032201C021F603C022F61CC623F60001B9
:101360003CD402C024F601C023F6036A06011C51D6
:10137000770FE96E000E0320EA6EEF50036A006EED
:10138000E8BE03062327035024231CC625F624C6E3
:1013900027F623C626F60001E7D422C6EAFF21C6B7
:1013A000E9FF02C0ECFFED5201C0EFFF06011C2B6C
:1013B000C6D71B2BC0D7880EF66E040EF76E0C0E28
:1013C000226F0001ABDD2450A4A8FED7796E100E69
:1013D000E96E26C022F625C021F6B5DD990EF66E1F
:1013E000040EF76E480E0601226F000197DD22C041
:1013F00021F61B0E0601226F000115D6290EA4A8A6
:10140000FED7796E200EA4A8FED7796EEA0EF66E8E
:10141000040EF76E48DE0D0EA4A8FED7796E0A0EF4
:10142000A4A8FED7796E100E06011B6F1B51EF08A2
:1014300028E31BC621F6000147DE01521EE0F40E30
:10144000F66E040EF76E140E0601226F000166DDC3
:101450001BC621F6570E0601226F00014BDE0C0E53
:10146000F66E050EF76E040E0601226F000156DDC2
:10147000120EF66E050EF76E16DE020E06011B2723
:10148000D5D79A0E216F00011FDE01C087F0DB6BFC
:10149000DBC0DCF006011B6B04000001875320E079
:1014A00090D601521DE00601216B000154DE01506F
:1014B00001C021F61E0EF66E050EF76E130E060124
:1014C000226F00012BDD06012151A4A8FED7796E01
:1014D000330EF66E050EF76E030E226F00011EDD51
:1014E000D953D8B474D0C80EDB6F92908980380E6F
:1014F000F66E050EF76E0C0E0601226F00010EDD72
:10150000D951A4A8FED7796E460EF66E050EF76E79
:10151000030E0601226F000101DD875303E0D9C0ED
:1015200021F659D6D96B06011B6B1B5111084CE3F0
:10153000360E216F1BC622F6000156D602C01EF6DB
:1015400001C01DF64A0EF66E050EF76E0D0E060171
:10155000226F0001E3DC1BC621F6570E0601226F45
:101560000001C8DD5B0EF66E050EF76E040E060177
:10157000226F0001D3DC1EC621F6570E0601226F32
:101580000001B8DD1DC621F6570E0601226F0001CD
:10159000B1DD200EA4A8FED7796E280EA4A8FED730
:1015A000796E100EE96E1EC622F61DC621F6CBDC42
:1015B000690EF66E050EF76E030E0601226F00012E
:1015C000ADDC06011B2BB1D792908990000106017A
:0415D00063D7FFD707
:020000040030CA
:0E00000015086934000910000FC000E0004030
:00000001FF
;PIC18F25K80
;CRC=D3FB  CREATED="13-Jan-22 15:41"
