:04000000E5EF08F030
:08000800046ED8CF05F0E0CF33
:1000100006F00001E9CF0CF0EACF07F0E1CF08F0DD
:10002000E2CF09F0D9CF0AF0DACF0BF0F3CF12F01C
:10003000F4CF13F0FACF14F0F5CF15F0F6CF16F099
:10004000F7CF17F000C00EF001C00FF002C010F0A3
:1000500003C011F0F2AA30EF00F0F2B4DDEF01F0CE
:10006000A0A236EF00F0A1B279EF01F09DAA3CEF1B
:1000700000F09EBA14EF02F0A3AA42EF00F0A4BA77
:10008000CDEF01F00EC000F00FC001F010C002F083
:1000900011C003F00CC0E9FF07C0EAFF078E08C0DB
:1000A000E1FF09C0E2FF0AC0D9FF0BC0DAFF12C0AE
:1000B000F3FF13C0F4FF14C0FAFF15C0F5FF16C01C
:1000C000F6FF17C0F7FF045006C0E0FF05C0D8FFD9
:1000D0001000F76AE20FF66E000EF7220900F550E5
:1000E000120000C1814001C0804101C0804100C1B7
:1000F000814001C0804100C1814000C1814001C0F8
:10010000804101C0804100C1814000C1814001C0E7
:10011000804100C1814001C0804101C0804100C1D7
:10012000814001C0804100C1814000C1814001C0C7
:10013000804100C1814001C0804101C0804100C1B7
:10014000814000C1814001C0804101C0804100C1A7
:10015000814001C0804100C1814000C1814001C097
:10016000804101C0804100C1814000C1814001C087
:10017000804100C1814001C0804101C0804100C177
:10018000814000C1814001C0804101C0804100C167
:10019000814001C0804100C1814000C1814001C057
:1001A000804100C1814001C0804101C0804100C147
:1001B000814001C0804100C1814000C1814001C037
:1001C000804101C0804100C1814000C1814001C027
:1001D000804100C1814001C0804101C0804100C117
:1001E0008140F76AF20FF66E010EF7220900F55012
:1001F000120000C0C101C30302C2C60607C705C57D
:10020000C404CC0C0DCD0FCFCE0E0ACACB0BC9093E
:1002100008C8D81819D91BDBDA1A1EDEDF1FDD1D4E
:100220001CDC14D4D515D71716D6D21213D311D17E
:10023000D010F03031F133F3F23236F6F737F535CE
:1002400034F43CFCFD3DFF3F3EFEFA3A3BFB39F9FE
:10025000F83828E8E929EB2B2AEAEE2E2FEF2DEDCE
:10026000EC2CE42425E527E7E62622E2E323E1213E
:1002700020E0A06061A163A3A26266A6A767A5654E
:1002800064A46CACAD6DAF6F6EAEAA6A6BAB69A9BE
:10029000A86878B8B979BB7B7ABABE7E7FBF7DBDCE
:1002A000BC7CB47475B577B7B67672B2B373B171FE
:1002B00070B05090915193535292965657975595CE
:1002C00094549C5C5D9D5F9F9E5E5A9A9B5B99597E
:1002D0005898884849894B8B8A4A4E8E8F4F8D4D4E
:1002E0004C8C4484854587474686824243834181BE
:1002F0008040B10EB36EE00EB26EE1C0DAF0020ED5
:10030000E127E1510F0801E2E16B010ED86F935133
:10031000FF0809E303E19251F40805E30A0E92276E
:10032000000E932302D093699269DF2BD8B4E02B9F
:10033000E05303E1DF51630802E2E06BDF6BDD2B8A
:10034000D8B4DE2BDD5170080DE1DE5117080AE14B
:10035000DE6BDD6B903D03D0913D01D003D0902B3F
:10036000D8B4912BDB5303E1939A8A9A03D0939AE2
:100370008A8ADB07DC5301E101D0DC07A19242EF5E
:1003800000F0A4AAFED7A6CF20F07ACF01F020A2D9
:1003900002D0A698A688CEEF01F0F3D701C0D9F01D
:1003A000A49A42EF00F0F29A0601425304E0D76AA1
:1003B000D66AF294F28A00011200E35102080AE1BF
:1003C000E45308E1E55306E1E2B104D0020EE75F31
:1003D000E28101D0E291E569E469E36B0601426BD9
:1003E0000001E1DFF29442EF00F09EAAFED7ABCF0E
:1003F00020F0AECF01F020A202D0AB98AB88120063
:10040000E55106014219436F036A4351000161DE61
:10041000016EE4510118E56F036A060143510001C2
:10042000E0DEE46F3CEF02F0E0DF01C041F6E2B154
:1004300028D0E35308E1E569E46941C6E6F0E32B1F
:10044000E76BE96B16D0E32D04D041C6E8F0E32B4F
:1004500010D0E35102080DE1E73D02D0FE0EE76F38
:10046000EA0EE725E96EEA6AD8B0EA2A41C6EFFF4C
:10047000E72B41C642F6C4D7010E0601426F0001C8
:1004800092DF9E9A42EF00F0232064637377634902
:10049000324320282563256C75292073746172749A
:1004A00020757020286473333020626F6F746C6F16
:1004B0006164657220737570706F7274292028777B
:1004C0006F726C64446174612073747265616D292C
:1004D00020286D6F64627573206164647265737344
:1004E0003D2575292025730D0A0031312D4A616E95
:1004F0002D323200232074657374696E6720616445
:10050000647265737320307825303278202E2E2E59
:10051000000020676F742061636B210D0A002320A7
:10052000526F636B424C4F434B20736179733A2097
:10053000272563270D0A00002320796F752073613A
:10054000696420272563270D0A0093988A88939071
:100550008A801200C69E9E9622C6C9FF020EC6BEA3
:1005600005D09EA6FED7000EC5BC010E016E12007E
:10057000C580C5B0FED70400090E006E002EFED760
:1005800000009A0E0601226F0001E4DF06011F350C
:10059000216F21372137F80E211721C622F60001DD
:1005A000D9DF20C622F6D6DFC584C5B4FED7120037
:1005B000030E06011F6F800E206F0001D9DF0601B8
:1005C0001F6B1EC620F60001D3DF010E06011F6F50
:1005D000206B0001CDDF030E06011F6FBF0E206FE1
:1005E0000001C6DF020E06011F6F100E206F000112
:1005F000BFDF030E06011F6F206F0001B9DF010E80
:1006000006011F6F206B0001B3DF020E06011F6F92
:10061000070E206F0001ACDFCFEF03F0060EEA6E8D
:100620001E0EE96EEF5011E0020E016EBF0E006E5D
:100630000400002EFDD7012EF9D7960E006E002E75
:10064000FED700D00400EF2EEFD7D4EF03F0600EFA
:10065000D36E9B6A646A0F015C51800B5C6F000E65
:100660005D6FC196C198C19AD1805D691F0E5C6FA4
:10067000F00EBB1650174D174A174717949A8B9ACE
:100680000001DB6BDC6B896B886B8B6B8A6B8D6B12
:100690008C6B8F6B8E6B916B906B936B926B946B7F
:1006A000D96B06011D6B1D51040869E3D8901D35F7
:1006B000036ABA0F016E000E032201C01EF603C0CA
:1006C0001FF61D51100DF350036A060F206F000E28
:1006D0000320216F070E2025016E000E2121036EDD
:1006E0000150210FE96E000E0320EA6EECCF03F0FB
:1006F000ED52EFCF20F61FC6EAFF1EC6E9FF03C08A
:10070000ECFFED5220C6EFFFD8901D35036AC40FF1
:10071000016E000E032201C01EF603C01FF61D511C
:10072000100DF350036A060F206F000E0320216F97
:10073000030E2025016E000E2121036E0150210FB2
:10074000E96E000E0320EA6EECCF03F0ED52EFCF1E
:1007500020F61FC6EAFF1EC6E9FF03C0ECFFED52FC
:1007600020C6EFFFD8901D35036ACE0FE96E000E4C
:100770000320EA6EEC6AED52EF6A1D2B94D7B06A43
:10078000070EB16EB10EB36EE00EB26EA082A38AF8
:100790000001DBDE060E06011E6F000109D70E0EFA
:1007A00006011E6F00013AD745EF09F00601266BDE
:1007B00025C628F62451D8B425072407276F2753C8
:1007C00002E1285332E023C603F02251E96E03C050
:1007D000EAFF2151036E2051202BD8B4212B296F21
:1007E00003C02AF6F2CF2BF6F29E2AC675FF29C661
:1007F00074FF7F9C7F9E7F8073502BBFF28EEF6EC5
:1008000023C603F02251E96E03C0EAFFEFCF27F6BB
:1008100026C62AF627C62BF62A512B19016E01C0CF
:1008200026F6222BD8B4232BC3D726C601F000010D
:10083000AEEF05F00601286B27C62AF62651D8B47C
:1008400027072607296F295302E12A533EE025C6D0
:1008500003F02451E96E03C0EAFFEFCF29F628C662
:100860002AF629C62BF62A512B19016E01C028F64B
:100870002351036E2251222BD8B4232B296F03C09E
:100880002AF62551036E2451242BD8B4252BE96E6A
:1008900003C0EAFFEFCF2BF6F250006EF29E2AC69D
:1008A00075FF29C674FF2BC673FF7F9C7F9E7F84D4
:1008B0000F01550E7E6EAA0E7E6E7F827FB2FED72E
:1008C0007F940050F2120601B7D728C601F000014C
:1008D00078EF04F00601210E206F236B020E226FC9
:1008E000256B20C624F6276B670E266F0001A2D762
:1008F00001C01FF6F250006EF29E756A746A1FC640
:1009000073FF7F9C7F9E7F840F01550E7E6EAA0E23
:100910007E6E7F827FB2FED77F940050F21200017C
:100920009FEF05F0960EDB6F610E216E250E226E95
:10093000236A5A0E246E080E266EAD0E256E060131
:100940001E6B1E510408D8A0EAD01E51100DF350A2
:10095000036A270FE96E000E0320EA6EEF6A1E514C
:10096000100DF350036A060F1F6F000E0320206F57
:100970000E0E1F25016E000E2021036E0150210F67
:10098000E96E000E0320EA6ED8901E35EF6E1E5100
:10099000100DF350036A060F1F6F000E0320206F27
:1009A000010E1F25016E000E2021036E0150210F44
:1009B000E96E000E0320EA6E010EEC6EED52F40EAD
:1009C000EF6E1E51100DF350036A060F1F6F000EDD
:1009D0000320206F030E1F25016E000E2021036EE1
:1009E0000150210FE96E000E0320EA6E010EEC6E3D
:1009F000ED52F40EEF6E1E51100DF350036A060F08
:100A00001F6F000E0320206F050E1F25016E000EC4
:100A10002021036E0150210FE96E000E0320EA6EC3
:100A2000020EEC6EED52BC0EEF6E1E51100DF35027
:100A3000036A060F1F6F000E0320206F070E1F258D
:100A4000016E000E2021036E0150210FE96E000E91
:100A50000320EA6E030EEC6EED52E80EEF6E1E51AF
:100A6000100DF350036A060F1F6F000E0320206F56
:100A7000090E1F25016E000E2021036E0150210F6B
:100A8000E96E000E0320EA6E010EEC6EED522C0EA4
:100A9000EF6E1E51100DF350036A060F1F6F000E0C
:100AA0000320206F0B0E1F25016E000E2021036E08
:100AB0000150210FE96E000E0320EA6EEC6AED5240
:100AC000EF6A1E51100DF350036A060F1F6F000EE0
:100AD0000320206F0D0E1F25016E000E2021036ED6
:100AE0000150210FE96E000E0320EA6EEF6A1E51DD
:100AF000100DF350036A060F1F6F000E0320206FC6
:100B00000F0E1F25016E000E2021036E0150210FD4
:100B1000E96E000E0320EA6EEF6A1E2B12D71E6BE1
:100B20001E510F080AE3036A1E51770FE96E000E8B
:100B30000320EA6EEF6A1E2BF3D70001CBD612001A
:100B40000601210E1E6F216B020E206F236B1EC645
:100B500022F6256B670E246F000128D601C01DF612
:100B6000F2CF1EF6F29E756A746A7F9C7F9E7F802C
:100B7000735006011EBFF28E1D5D06E12150600814
:100B800003E221507A0803E20001CCDE06010001F5
:100B900046EF09F09EAA02D028DCFCD7AE50949A0A
:100BA0008B9A9D8AD5EF05F0F5D7C40ED56EC00E91
:100BB000F2124FEF09F093968A9693928A82060179
:100BC0001F51070803E393908A9004D093988A9862
:100BD000080E1F5F1F5303E1030E236F25D01F2D47
:100BE00003D0130E236F20D01F51020803E10B0E18
:100BF000236F1AD01F51030803E11B0E236F14D07B
:100C00001F51040803E1070E236F0ED01F51050882
:100C100003E1170E236F08D01F51060803E10F0EE2
:100C2000236F02D01F0E236F226B225104080EE3A4
:100C300093968A9623B102D08A9201D08A829392A7
:100C4000D890233393968A86222BEFD7216B206B83
:100C5000226B22510D080EE393968A96938481B4F9
:100C600002D0D89001D0D8802037213793968A8639
:100C7000222BEFD7219B2199000167DC060120C6BA
:100C800001F021C602F0000167EF09F006012D51C5
:100C90002F03F3CF01F0F4CF00F03003F350002620
:100CA0002E512F03F3500020026E00011200D8B223
:100CB00004D0060EEA6E3C0EE96E006A016A026A12
:100CC000036A06013C6B3D6B3E6B3F6B3B513A1137
:100CD000391138112CE0200E406FD8903437353759
:100CE000363737373C373D373E373F373B513F5D2F
:100CF00008E13A513E5D05E139513D5D02E138516F
:100D00003C5D0FE338513C5F3951D8A0393D3D5F20
:100D10003A51D8A03A3D3E5F3B51D8A03B3D3F5FA2
:100D2000D8800036013602360336402FD6D73CC66F
:100D3000EFFF3DC6ECFF3EC6ECFF3FC6ECFF0001F7
:100D400068EF07F006012E6B21C62DF6306B200EE2
:100D50002F6F00019BDF02C02EF601C02DF6036A43
:100D600006012151E90FE96E030E0320EA6E036AC2
:100D7000EFCF02F0D8900236033602500124016E04
:100D80002E5103220150E90FE96E010E0320EA6E95
:100D900023C6ECFFED5222C6EFFF036A2151E90F93
:100DA000E96E030E0320EA6EEF2A036A2151E90F70
:100DB000E96E030E0320EA6EEF500F0808E2036AA3
:100DC0002151E90FE96E030E0320EA6EEF6A036A10
:100DD0002151F90FE96E030E0320EA6EEF500F0860
:100DE00008E3036A2151F90FE96E030E0320EA6E4E
:100DF000EF2A2B6B2A6B296B286B2C6B036A215112
:100E0000F90FE96E030E0320EA6EEF502C5D2AE223
:100E10002E6B21C62DF6306B200E2F6F000136DFB2
:100E200002C02EF601C02DF6036A06012CC602F0A0
:100E3000D8900236033602500124016E2E5103224F
:100E40000150E90FE96E010E0320EA6EECCF03F0CA
:100E5000ED52EF50282703502923000E2A232B237D
:100E60002C2BCCD7036A2151F90FE96E030E032016
:100E7000EA6EEFCF2DF6D8902D31006E016A026A2E
:100E8000036A005028252D6F015029212E6F025032
:100E90002A212F6F03502B21306F036A2151F90F44
:100EA000E96E030E0320EA6EEFCF38F6EACF33F691
:100EB000E9CF32F6D89230C637F62FC636F62EC6B0
:100EC00035F62DC634F63B6B3A6B396B0001EFD625
:100ED00033C6EAFF32C6E9FF03C027F602C026F692
:100EE00001C025F600C024F6060124C601F025C67F
:100EF00002F0000183EF09F00900F6CF1FF6F7CFEB
:100F000020F6F550A4A8FED7796E1FC6F6FF20C6BE
:100F1000F7FF06011E2F01D002D00001EDD700011E
:100F20001200EACF25F6E9CF24F606011E39F009B2
:100F3000206F2027E20F216F320F236F1E510F0BFE
:100F4000212721272327E90F226F222722271D3956
:100F50000F0B2227232722372337231F23371D5127
:100F60000F0B23272037070E1F6F0A0E2207232798
:100F7000FDE321072227FDE320072127FDE31F07CB
:100F80002027FDE3060EEA6E1F0EE96E070E2415FC
:100F9000249DE926000EEA22E950230804E1EA50E4
:100FA000060801E1248DEF50006E08E124BD06D053
:100FB00024B90CD024B702D0200E03D02487249962
:100FC000300E00260050A4A8FED7796EEE5024AD56
:100FD000E3D70001A4EF09F006012051016A1F5D6B
:100FE00003E21FC600F00CD0006A080E216F1F3705
:100FF00000362051005CD8B0006E0136212FF7D7A3
:101000000001120001501DC61FF6640E0601206F7C
:101010000001E2DF00C01DF60150300E08E10601BC
:101020001EA30ED01EB70CD01EB9200E04D0060190
:101030001E971E991E8101260150A4A8FED7796E25
:101040001DC61FF60A0E206F0001C6DF00C01DF688
:101050000150300E08E106011EB70BD01EA109D0C9
:101060001EB9200E000101260150A4A8FED7796EFA
:101070000601300E1D271D51A4A8FED7796E000170
:10108000B4EF09F00900F5520DE0F6CF1DF6F7CFE9
:101090001EF6F550A4A8FED7796E1DC6F6FF1EC633
:1010A000F7FFF0D71200C580C5B0FED71DC622F6E7
:1010B000AAEC02F001C01EF6C584C5B4FED7060135
:1010C0001E5303E1010E016E02D0000E016E0001FD
:1010D000120006011EBF10D00F0E006E1D39001643
:1010E0000A0E005C03E2300E002602D01E510026DC
:1010F0000050A4A8FED7796E0F0E1D170A0E1D5DB5
:1011000002E2300E02D01E9F1E511D271D51A4A8C1
:10111000FED7796E0001E5EF09F0C69CC586C5B61D
:10112000FED700B0C59A00A0C58AC588C5B8FED74D
:10113000C9CF01F0C8EF08F0C580C5B0FED70400E4
:10114000090E006E002EFED700009A0E0601226FD7
:101150000001AAEC02F006011D351F6F1F371F3773
:10116000F80E1F171FC622F60001AAEC02F0C58276
:10117000C5B2FED70400090E006E002EFED7000097
:101180009B0E0601226F0001AAEC02F0006AC5D78F
:1011900001C01EF6C584C5B4FED706011EC601F007
:1011A00000011200050E06011D6F0001C5DF015090
:1011B000010B016E07EF0AF006011F6B1DC620F63A
:1011C0000001B8EC02F045EF0AF0F86AD09E078EF5
:1011D000620ED36E9B6A646A206AA7960C0EAF6E8D
:1011E000A20EAC6E900EAB6EB986220E7B6E000E18
:1011F0007C6EA60EBA6E900EA66E94869488040E2F
:10120000C86E280EC66EC79EC79CE291E36B0601AE
:101210001A6B196B0F015C51800B5C6F000E5D6FD8
:10122000C196C198C19A5E6B5F6B0DD002001A0027
:1012300000C1402100FF41E900FFC000FFC000FFE6
:10124000C00034C00000000EF86E120EF76E2C0EB7
:10125000F66E0900F550006E000A13E00900F55023
:10126000016EE8BE05D03F0BEA6E0900F5CFE9FF3D
:1012700001BC090001AC0900F5CFEEFF004EE9D733
:10128000F9D7F86A000127EF03F05AD422507F08FB
:1012900002E292EC04F0AB8EAB88AC8A85D40601F6
:1012A0001B6B1B5113083DE31C6B1C510F0837E3EC
:1012B000D8901C35036A9A0F016E000E032201C0FC
:1012C0001DF603C01EF61CC61FF6000174D402C032
:1012D00020F601C01FF6036A06011C51770FE96E64
:1012E000000E0320EA6EEF50036A006EE8BE0306AC
:1012F0001F27035020231CC621F620C623F61FC635
:1013000022F600011FD51EC6EAFF1DC6E9FF02C076
:10131000ECFFED5201C0EFFF06011C2BC6D71B2BC3
:10132000C0D7880EF66E040EF76E0C0E1E6F00010D
:10133000E3DD2450A4A8FED7796E100EE96E26C016
:101340001EF625C01DF6EDD5990EF66E040EF76E4D
:10135000480E06011E6F0001CFDD22C01DF61B0ED8
:1013600006011E6F00014ED6290EA4A8FED7796E85
:10137000200EA4A8FED7796EEA0EF66E040EF76E64
:1013800081DE0D0EA4A8FED7796E0A0EA4A8FED7A2
:10139000796E100E06011B6F1B51EF0828E31BC668
:1013A0001DF6000180DE01521EE0F40EF66E040E02
:1013B000F76E140E06011E6F00019EDD1BC61DF6A2
:1013C000570E06011E6F000184D60C0EF66E050E38
:1013D000F76E040E06011E6F00018EDD120EF66E12
:1013E000050EF76E4FDE020E06011B27D5D79A0EAB
:1013F0001D6F000158DE01C087F0DB6BDBC0DCF045
:1014000006011B6B04000001875320E0CBD601527C
:101410001DE006011D6B00018FDE015001C01DF6AD
:101420001E0EF66E050EF76E130E06011E6F0001FE
:1014300063DD06011D51A4A8FED7796E330EF66E4A
:10144000050EF76E030E1E6F000156DDD95320E026
:10145000C80EDB6F380EF66E050EF76E0C0E060129
:101460001E6F000149DDD951A4A8FED7796E460E42
:10147000F66E050EF76E030E06011E6F00013CDDD1
:10148000875303E0D9C01DF697D6D96B9290897027
:061490000601B8D7FFD7EA
:020000040030CA
:0E00000015086934000910000FC000E0004030
:00000001FF
;PIC18F25K80
;CRC=46F2  CREATED="11-Jan-22 15:15"
