:0400000018EF06F0FF
:08000800046ED8CF05F0E0CF33
:1000100006F00001E9CF0CF0EACF07F0E1CF08F0DD
:10002000E2CF09F0D9CF0AF0DACF0BF0F3CF12F01C
:10003000F4CF13F0FACF14F0F5CF15F0F6CF16F099
:10004000F7CF17F000C00EF001C00FF002C010F0A3
:1000500003C011F0A0A230EF00F0A1B25DEF00F0FC
:10006000A3AA36EF00F0A4BAAFEF00F00EC000F084
:100070000FC001F010C002F011C003F00CC0E9FF86
:1000800007C0EAFF078E08C0E1FF09C0E2FF0AC00F
:10009000D9FF0BC0DAFF12C0F3FF13C0F4FF14C086
:1000A000FAFF15C0F5FF16C0F6FF17C0F7FF0450A2
:1000B00006C0E0FF05C0D8FF1000B10EB36EE00E21
:1000C000B26E56C04FF0020E562656500F0801E28F
:1000D000566A2C50FF0809E303E12B50F40805E3AE
:1000E0000A0E2B26000E2C2202D02C682B68542AD4
:1000F000D8B4552A555203E15450630802E2556AB8
:10010000546A522AD8B4532A525070080DE1535001
:1001100017080AE1536A526A293C03D02A3C01D0ED
:1001200003D0292AD8B42A2A505203E1939A8A9AF2
:1001300003D0939A8A8A5006515201E101D05106A8
:10014000A19236EF00F0A4AAFED7A6CF1FF07ACF77
:1001500001F01FA202D0A698A688B0EF00F0F3D756
:1001600001C04EF0A49A36EF00F023206463737749
:100170006349324320282563256C752920737461F7
:10018000727420757020286473333020626F6F742E
:100190006C6F6164657220737570706F7274292062
:1001A00028776F726C644461746120737472656146
:1001B0006D2920286D6F64627573206164647265B7
:1001C00073733D2575292025730D0A00362D46656C
:1001D000622D32320000232074657374696E6720CB
:1001E0006164647265737320307825303278202E14
:1001F0002E2E000020676F742061636B210D0A00B2
:100200002320526F636B424C4F434B2073617973D1
:100210003A20272563270D0A00002320796F7520D7
:100220007361696420272563270D0A002320726506
:100230006720616464725B3078253032785D3D30D0
:10024000782530346C782028256C75290D0A00003B
:1002500093988A8893908A801200C69E9E9692C434
:10026000C9FF020EC6BE05D09EA6FED7000EC5BCB5
:10027000010E016E1200C580C5B0FED70400090E44
:10028000006E002EFED700009A0E0401926F00014E
:10029000E4DF04018E35906F90379037F80E901799
:1002A00090C492F40001D9DF8FC492F4D6DFC584E4
:1002B000C5B4FED71200030E04018E6F800E8F6F3F
:1002C0000001D9DF04018E6B8DC48FF40001D3DFF0
:1002D000010E04018E6F8F6B0001CDDF030E040150
:1002E0008E6FBF0E8F6F0001C6DF020E04018E6F8E
:1002F000100E8F6F0001BFDF030E04018E6F8F6F32
:100300000001B9DF010E04018E6F8F6B0001B3DFB6
:10031000020E04018E6F070E8F6F0001ACDFDDEF60
:1003200001F0040EEA6E8D0EE96EEF5011E0020E40
:10033000016EBF0E006E0400002EFDD7012EF9D70E
:10034000960E006E002EFED700D00400EF2EEFD7E1
:10035000E2EF01F0600ED36E9B6A646A0F015C519C
:10036000800B5C6F000E5D6FC196C198C19AD18001
:100370005D691F0E5C6FF00EBB1650174D174A17C4
:100380004717949A8B9A506A516A286A276A2A6A90
:10039000296A2C6A2B6A2D6A4E6AB06A070EB16E02
:1003A000B10EB36EE00EB26EA082A38A000150DFE0
:1003B000060E04018D6F00017ED70E0E04018D6FB5
:1003C0000001AFD774EF06F00401966B95C498F462
:1003D0009451D8B495079407976F975302E19853B7
:1003E00032E093C403F09251E96E03C0EAFF9151E9
:1003F000036E9051902BD8B4912B996F03C09AF44F
:10040000F2CF9BF4F29E9AC475FF99C474FF7F9C4F
:100410007F9E7F8073509BBFF28EEF6E93C403F07C
:100420009251E96E03C0EAFFEFCF97F496C499F4B6
:1004300097C49AF499519A19016E01C096F4922BBF
:10044000D8B4932BC3D796C401F00001BDEF02F0DE
:100450000401976B96C499F49551D8B49607950703
:10046000986F985302E199533EE094C403F093517E
:10047000E96E03C0EAFFEFCF98F497C499F498C4EB
:100480009AF499519A19016E01C097F49251036E32
:100490009151912BD8B4922B986F03C099F4945139
:1004A000036E9351932BD8B4942BE96E03C0EAFFEB
:1004B000EFCF9AF4F250006EF29E99C475FF98C483
:1004C00074FF9AC473FF7F9C7F9E7F840F01550E3B
:1004D0007E6EAA0E7E6E7F827FB2FED77F94005022
:1004E000F2120401B7D797C401F0000186EF02F0C1
:1004F0000401200E8F6F926B020E916F946B8FC46C
:1005000093F4966B070E956F0001A2D701C08EF48D
:10051000F250006EF29E756A746A8EC473FF7F9CFF
:100520007F9E7F840F01550E7E6EAA0E7E6E7F82A7
:100530007FB2FED77F940050F2120001AEEF02F0BE
:10054000960E506E610E206E250E216E226A5A0E96
:10055000236E080E256EAD0E246ECAD7120004015C
:10056000200E8E6F916B020E906F936B8EC492F47F
:10057000956B070E946F000127D701C08DF4F2CF61
:100580008EF4F29E756A746A7F9C7F9E7F807350A2
:1005900004018EBFF28E8D5D06E12050600803E2FB
:1005A00020507A0803E20001CBDF0401000175EF5F
:1005B00006F093968A9693928A8204018F510708D7
:1005C00003E393908A9004D093988A98080E8F5FE3
:1005D0008F5303E1030E936F25D08F2D03D0130E9D
:1005E000936F20D08F51020803E10B0E936F1AD046
:1005F0008F51030803E11B0E936F14D08F51040831
:1006000003E1070E936F0ED08F51050803E1170E1B
:10061000936F08D08F51060803E10F0E936F02D03D
:100620001F0E936F926B925104080EE393968A9675
:1006300093B102D08A9201D08A829392D890933358
:1006400093968A86922BEFD7916B906B926B925117
:100650000D080EE393968A96938481B402D0D890C5
:1006600001D0D8809037913793968A86922BEFD716
:10067000919B91990001ECDD040190C401F091C4BB
:1006800002F0000191EF06F004019D519F03F3CFAA
:1006900001F0F4CF00F0A003F35000269E519F0319
:1006A000F3500020026E00011200D8B204D0040EF4
:1006B000EA6EAC0EE96E006A016A026A036A04011E
:1006C000AC6BAD6BAE6BAF6BAB51AA11A911A8119E
:1006D0002CE0200EB06FD890A437A537A637A737E7
:1006E000AC37AD37AE37AF37AB51AF5D08E1AA518C
:1006F000AE5D05E1A951AD5D02E1A851AC5D0FE32E
:10070000A851AC5FA951D8A0A93DAD5FAA51D8A00E
:10071000AA3DAE5FAB51D8A0AB3DAF5FD8800036ED
:10072000013602360336B02FD6D7ACC4EFFFADC4C6
:10073000ECFFAEC4ECFFAFC4ECFF000166EF04F0C9
:1007400004019E6B91C49DF4A06B200E9F6F00016D
:100750009BDF02C09EF401C09DF4036A0401915125
:10076000570FE96E020E0320EA6E036AEFCF02F024
:10077000D8900236033602500124016E9E510322A6
:100780000150570FE96E000E0320EA6E93C4ECFF90
:10079000ED5292C4EFFF036A9151570FE96E020EBA
:1007A0000320EA6EEF2A036A9151570FE96E020E99
:1007B0000320EA6EEF500F0808E2036A9151570FC9
:1007C000E96E020E0320EA6EEF6A036A9151670F29
:1007D000E96E020E0320EA6EEF500F0808E3036A89
:1007E0009151670FE96E020E0320EA6EEF2A9B6BB0
:1007F0009A6B996B986B9C6B036A9151670FE96ECA
:10080000020E0320EA6EEF509C5D2AE29E6B91C4BB
:100810009DF4A06B200E9F6F000136DF02C09EF496
:1008200001C09DF4036A04019CC402F0D890023612
:10083000033602500124016E9E5103220150570FCE
:10084000E96E000E0320EA6EECCF03F0ED52EF509C
:10085000982703509923000E9A239B239C2BCCD7D7
:10086000036A9151670FE96E020E0320EA6EEFCF23
:100870009DF4D8909D31006E016A026A036A0050AF
:1008800098259D6F015099219E6F02509A219F6F6C
:1008900003509B21A06F036A9151670FE96E020E0E
:1008A0000320EA6EEFCFA8F4EACFA3F4E9CFA2F4D5
:1008B000D892A0C4A7F49FC4A6F49EC4A5F49DC476
:1008C000A4F4AB6BAA6BA96B0001EFD6A3C4EAFF3B
:1008D000A2C4E9FF03C097F402C096F401C095F4E6
:1008E00000C094F4040194C401F095C402F0000126
:1008F0009CEF06F00900F6CF8FF4F7CF90F4F55097
:10090000A4A8FED7796E8FC4F6FF90C4F7FF040148
:100910008E2F01D002D00001EDD700011200EACFE6
:1009200095F4E9CF94F404018E39F009906F902783
:10093000E20F916F320F936F8E510F0B912791271A
:100940009327E90F926F922792278D390F0B9227E9
:10095000932792379337931F93378D510F0B93271C
:100960009037070E8F6F0A0E92079327FDE39107CA
:100970009227FDE390079127FDE38F079027FDE382
:10098000040EEA6E8F0EE96E070E9415949DE9260B
:10099000000EEA22E950930804E1EA50040801E15C
:1009A000948DEF50006E08E194BD06D094B90CD040
:1009B00094B702D0200E03D094879499300E00266D
:1009C0000050A4A8FED7796EEE5094ADE3D7000195
:1009D000120004019051016A8F5D03E28FC400F0A0
:1009E0000CD0006A080E916F8F3700369051005C72
:1009F000D8B0006E0136912FF7D7000112000150D8
:100A00008DC48FF4640E0401906F0001E2DF00C01A
:100A10008DF40150300E08E104018EA30ED08EB784
:100A20000CD08EB9200E04D004018E978E998E8141
:100A300001260150A4A8FED7796E8DC48FF40A0E4A
:100A4000906F0001C6DF00C08DF40150300E08E148
:100A500004018EB70BD08EA109D08EB9200E0001F3
:100A600001260150A4A8FED7796E0401300E8D270F
:100A70008D51A4A8FED7796E0001CDEF06F00900D4
:100A8000F5520DE0F6CF8DF4F7CF8EF4F550A4A813
:100A9000FED7796E8DC4F6FF8EC4F7FFF0D7120033
:100AA000C580C5B0FED78DC492F42DEC01F001C015
:100AB0008EF4C584C5B4FED704018E5303E1010E44
:100AC000016E02D0000E016E0001120004018EBF03
:100AD00010D00F0E006E8D3900160A0E005C03E276
:100AE000300E002602D08E5100260050A4A8FED75A
:100AF000796E0F0E8D170A0E8D5D02E2300E02D058
:100B00008E9F8E518D278D51A4A8FED7796E00013E
:100B10001200C69CC586C5B6FED700B0C59A00A017
:100B2000C58AC588C5B8FED7C9CF01F01200C580F7
:100B3000C5B0FED70400090E006E002EFED70000DF
:100B40009A0E0401926F00012DEC01F004018D3525
:100B50008F6F8F378F37F80E8F178FC492F4000185
:100B60002DEC01F0C582C5B2FED70400090E006E5F
:100B7000002EFED700009B0E0401926F00012DECA9
:100B800001F0006AC6DF01C08EF4C584C5B4FED78B
:100B900004018EC401F000011200050E04018D6FE6
:100BA0000001C5DF0150010B016E20EF07F00401C9
:100BB0008E6B8DC48FF400013BEC01F064EF07F005
:100BC000C580C5B0FED70400090E006E002EFED70A
:100BD00000008DC492F42DEC01F08EC492F42DEC43
:100BE00001F0C582C5B2FED70400090E006E002ECA
:100BF000FED7000004018D510109916F926F000131
:100C00002DEC01F0010E006E84DF01C08FF4006A4C
:100C100080DF01C090F4C584C5B4FED78FC403F053
:100C2000040190C401F003C002F0000170EF07F06E
:100C3000F86AD09E078E620ED36E9B6A646A1F6A42
:100C4000A7960C0EAF6EA20EAC6E900EAB6EB98670
:100C5000220E7B6E000E7C6EA60EBA6E900EA66EF5
:100C600094869488040EC86E280EC66EC79EC79CD4
:100C70000401886B876B0F015C51800B5C6F000E69
:100C80005D6FC196C198C19A5E6B5F6B0BD002001D
:100C9000190000FF402000FFC000FFC000FFC0009F
:100CA0006BC00000000EF86E0C0EF76E8E0EF66E26
:100CB0000900F550006E000A13E00900F550016EBE
:100CC000E8BE05D03F0BEA6E0900F5CFE9FF01BC95
:100CD000090001AC0900F5CFEEFF004EE9D7F9D7C6
:100CE000F86A0001AAEF01F03AD421507F0801E22E
:100CF00027DC0401896B895113082CE38A6B8A5124
:100D00000F0826E3D8908A35036A2E0F016E000E75
:100D1000032201C08DF403C08EF48AC48FF4000155
:100D200048D402C090F401C08FF48AC491F402C088
:100D300093F401C092F404D58EC4EAFF8DC4E9FF98
:100D400002C0ECFFED5201C0EFFF04018A2BD7D7A0
:100D5000892BD1D76A0EF66E010EF76E0C0E8E6FD0
:100D60000001C8DD2350A4A8FED7796E100EE96EED
:100D700025C08EF424C08DF4D2DD7B0EF66E010EFC
:100D8000F76E480E04018E6F0001B4DD21C08DF4B2
:100D90001B0E04018E6F000132D6290EA4A8FED7C7
:100DA000796E200EA4A8FED7796ECC0EF66E010ED9
:100DB000F76E65DE0D0EA4A8FED7796E0A0EA4A804
:100DC000FED7796E100E0401896F8951EF0828E370
:100DD00089C48DF4000164DE01521EE0D60EF66E69
:100DE000010EF76E140E04018E6F000183DD89C4BD
:100DF0008DF4570E04018E6F000168DEEE0EF66E64
:100E0000010EF76E040E04018E6F000173DDF40E07
:100E1000F66E010EF76E33DE020E04018927D5D778
:100E20009A0E8D6F00013CDE01C026F0506A50C062
:100E300051F00401896B0400265225E00001ADD673
:100E40000152D8A402D004011ED004018D6B000110
:100E50006EDE015001C08DF4000EF66E020EF76ECC
:100E6000130E04018E6F000145DD04018D51A4A80D
:100E7000FED7796E150EF66E020EF76E030E8E6FAC
:100E8000000138DD04014E52D8B472D0C80E506E45
:100E9000929089801A0EF66E020EF76E0C0E8E6F0F
:100EA000000128DD4E50A4A8FED7796E280EF66EFC
:100EB000020EF76E030E04018E6F00011BDD265239
:100EC00003E04EC08DF473D64E6A0401896B8951DC
:100ED00011084CE3360E8D6F89C48EF4000170D674
:100EE00002C08CF401C08BF42C0EF66E020EF76E6D
:100EF0000D0E04018E6F0001FDDC89C48DF4570EC8
:100F000004018E6F0001E2DD3D0EF66E020EF76EFB
:100F1000040E04018E6F0001EDDC8CC48DF4570EBD
:100F200004018E6F0001D2DD8BC48DF4570E0401D5
:100F30008E6F0001CBDD200EA4A8FED7796E280E9F
:100F4000A4A8FED7796E100EE96E8CC48EF48BC403
:100F50008DF4E5DC4B0EF66E020EF76E030E040107
:100F60008E6F0001C7DC0401892BB1D79290899064
:040F700062D7030041
:020000040030CA
:0E0000001508663F000991000FC000E00040A7
:00000001FF
;PIC18F25K80
;CRC=DEEE  CREATED="06-Feb-22 19:27"
