:040000003CEF09F0D8
:08000800046ED8CF05F0E0CF33
:1000100006F00001E9CF0CF0EACF07F0E1CF08F0DD
:10002000E2CF09F0D9CF0AF0DACF0BF0F3CF12F01C
:10003000F4CF13F0FACF14F0F5CF15F0F6CF16F099
:10004000F7CF17F000C00EF001C00FF002C010F0A3
:1000500003C011F0F2AA30EF00F0F2B4DDEF01F0CE
:10006000A0A236EF00F0A1B279EF01F09DAA3CEF1B
:1000700000F09EBA14EF02F0A3AA42EF00F0A4BA77
:10008000CDEF01F00EC000F00FC001F010C002F083
:1000900011C003F00CC0E9FF07C0EAFF078E08C0DB
:1000A000E1FF09C0E2FF0AC0D9FF0BC0DAFF12C0AE
:1000B000F3FF13C0F4FF14C0FAFF15C0F5FF16C01C
:1000C000F6FF17C0F7FF045006C0E0FF05C0D8FFD9
:1000D0001000F76AE20FF66E000EF7220900F550E5
:1000E000120000C1814001C0804101C0804100C1B7
:1000F000814001C0804100C1814000C1814001C0F8
:10010000804101C0804100C1814000C1814001C0E7
:10011000804100C1814001C0804101C0804100C1D7
:10012000814001C0804100C1814000C1814001C0C7
:10013000804100C1814001C0804101C0804100C1B7
:10014000814000C1814001C0804101C0804100C1A7
:10015000814001C0804100C1814000C1814001C097
:10016000804101C0804100C1814000C1814001C087
:10017000804100C1814001C0804101C0804100C177
:10018000814000C1814001C0804101C0804100C167
:10019000814001C0804100C1814000C1814001C057
:1001A000804100C1814001C0804101C0804100C147
:1001B000814001C0804100C1814000C1814001C037
:1001C000804101C0804100C1814000C1814001C027
:1001D000804100C1814001C0804101C0804100C117
:1001E0008140F76AF20FF66E010EF7220900F55012
:1001F000120000C0C101C30302C2C60607C705C57D
:10020000C404CC0C0DCD0FCFCE0E0ACACB0BC9093E
:1002100008C8D81819D91BDBDA1A1EDEDF1FDD1D4E
:100220001CDC14D4D515D71716D6D21213D311D17E
:10023000D010F03031F133F3F23236F6F737F535CE
:1002400034F43CFCFD3DFF3F3EFEFA3A3BFB39F9FE
:10025000F83828E8E929EB2B2AEAEE2E2FEF2DEDCE
:10026000EC2CE42425E527E7E62622E2E323E1213E
:1002700020E0A06061A163A3A26266A6A767A5654E
:1002800064A46CACAD6DAF6F6EAEAA6A6BAB69A9BE
:10029000A86878B8B979BB7B7ABABE7E7FBF7DBDCE
:1002A000BC7CB47475B577B7B67672B2B373B171FE
:1002B00070B05090915193535292965657975595CE
:1002C00094549C5C5D9D5F9F9E5E5A9A9B5B99597E
:1002D0005898884849894B8B8A4A4E8E8F4F8D4D4E
:1002E0004C8C4484854587474686824243834181BE
:1002F0008040B10EB36EE00EB26EE1C0DAF0020ED5
:10030000E127E1510F0801E2E16B010ED86F935133
:10031000FF0809E303E19251F40805E30A0E92276E
:10032000000E932302D093699269DF2BD8B4E02B9F
:10033000E05303E1DF51630802E2E06BDF6BDD2B8A
:10034000D8B4DE2BDD5170080DE1DE5117080AE14B
:10035000DE6BDD6B903D03D0913D01D003D0902B3F
:10036000D8B4912BDB5303E1939A8A9A03D0939AE2
:100370008A8ADB07DC5301E101D0DC07A19242EF5E
:1003800000F0A4AAFED7A6CF20F07ACF01F020A2D9
:1003900002D0A698A688CEEF01F0F3D701C0D9F01D
:1003A000A49A42EF00F0F29A0601445304E0D76A9F
:1003B000D66AF294F28A00011200E35102080AE1BF
:1003C000E45308E1E55306E1E2B104D0020EE75F31
:1003D000E28101D0E291E569E469E36B0601446BD7
:1003E0000001E1DFF29442EF00F09EAAFED7ABCF0E
:1003F00020F0AECF01F020A202D0AB98AB88120063
:10040000E55106014419456F036A4551000161DE5B
:10041000016EE4510118E56F036A060145510001C0
:10042000E0DEE46F3CEF02F0E0DF01C043F6E2B152
:1004300028D0E35308E1E569E46943C6E6F0E32B1D
:10044000E76BE96B16D0E32D04D043C6E8F0E32B4D
:1004500010D0E35102080DE1E73D02D0FE0EE76F38
:10046000EA0EE725E96EEA6AD8B0EA2A43C6EFFF4A
:10047000E72B43C644F6C4D7010E0601446F0001C2
:1004800092DF9E9A42EF00F0232064637377634902
:10049000324320282563256C75292073746172749A
:1004A00020757020286473333020626F6F746C6F16
:1004B0006164657220737570706F7274292028777B
:1004C0006F726C64446174612073747265616D292C
:1004D00020286D6F64627573206164647265737344
:1004E0003D2575292025730D0A0031332D4A616E93
:1004F0002D323200232074657374696E6720616445
:10050000647265737320307825303278202E2E2E59
:10051000000020676F742061636B210D0A002320A7
:10052000526F636B424C4F434B20736179733A2097
:10053000272563270D0A00002320796F752073613A
:10054000696420272563270D0A00232062797465DA
:1005500020616464725B3078253032785D3D30789C
:100560002530327820282575290D0A002320726550
:100570006720616464725B3078253032785D3D308D
:10058000782530346C782028256C75290D0A0000F8
:1005900093988A8893908A801200C69E9E9624C65D
:1005A000C9FF020EC6BE05D09EA6FED7000EC5BC72
:1005B000010E016E1200C580C5B0FED70400090E01
:1005C000006E002EFED700009A0E0601246F000177
:1005D000E4DF06012135236F23372337F80E231775
:1005E00023C624F60001D9DF22C624F6D6DFC5844F
:1005F000C5B4FED71200030E0601216F800E226FD4
:100600000001D9DF0601216B20C622F60001D3DFED
:10061000010E0601216F226B0001CDDF030E0601E2
:10062000216FBF0E226F0001C6DF020E0601216F8F
:10063000100E226F0001BFDF030E0601216F226F33
:100640000001B9DF010E0601216F226B0001B3DF4B
:10065000020E0601216F070E226F0001ACDFF2EFE0
:1006600003F0060EEA6E200EE96EEF5011E0020E66
:10067000016EBF0E006E0400002EFDD7012EF9D7CB
:10068000960E006E002EFED700D00400EF2EEFD79E
:10069000F7EF03F0600ED36E9B6A646A0F015C5142
:1006A000800B5C6F000E5D6FC196C198C19AD180BE
:1006B0005D691F0E5C6FF00EBB1650174D174A1781
:1006C0004717949A8B9A0001DB6BDC6B896B886B04
:1006D0008B6B8A6B8D6B8C6B8F6B8E6B916B906B56
:1006E000936B926B946BD96B06011F6B1F510408BF
:1006F00069E3D8901F35036ABA0F016E000E03221A
:1007000001C020F603C021F61F51100DF350036AFB
:10071000060F226F000E0320236F070E2225016EA5
:10072000000E2321036E0150210FE96E000E0320FD
:10073000EA6EECCF03F0ED52EFCF22F621C6EAFFCE
:1007400020C6E9FF03C0ECFFED5222C6EFFFD890B0
:100750001F35036AC40F016E000E032201C020F68C
:1007600003C021F61F51100DF350036A060F226FCC
:10077000000E0320236F030E2225016E000E23219D
:10078000036E0150210FE96E000E0320EA6EECCFDC
:1007900003F0ED52EFCF22F621C6EAFF20C6E9FFB3
:1007A00003C0ECFFED5222C6EFFFD8901F35036A5D
:1007B000CE0FE96E000E0320EA6EEC6AED52EF6A8E
:1007C0001F2B94D7B06A070EB16EB10EB36EE00E58
:1007D000B26EA082A38A0001DBDE060E0601206F46
:1007E000000109D70E0E0601206F00013AD79CEFD9
:1007F00009F00601286B27C62AF62651D8B4270728
:100800002607296F295302E12A5332E025C603F057
:100810002451E96E03C0EAFF2351036E2251222BBB
:10082000D8B4232B2B6F03C02CF6F2CF2DF6F29EFB
:100830002CC675FF2BC674FF7F9C7F9E7F807350F4
:100840002DBFF28EEF6E25C603F02451E96E03C072
:10085000EAFFEFCF29F628C62CF629C62DF62C5133
:100860002D19016E01C028F6242BD8B4252BC3D72F
:1008700028C601F00001D1EF05F006012A6B29C658
:100880002CF62851D8B4290728072B6F2B5302E1E7
:100890002C533EE027C603F02651E96E03C0EAFF61
:1008A000EFCF2BF62AC62CF62BC62DF62C512D1980
:1008B000016E01C02AF62551036E2451242BD8B4B1
:1008C000252B2B6F03C02CF62751036E2651262BA8
:1008D000D8B4272BE96E03C0EAFFEFCF2DF6F25014
:1008E000006EF29E2CC675FF2BC674FF2DC673FFDB
:1008F0007F9C7F9E7F840F01550E7E6EAA0E7E6EBA
:100900007F827FB2FED77F940050F2120601B7D7E4
:100910002AC601F000019BEF04F00601210E226FB0
:10092000256B020E246F276B22C626F6296B670EF5
:10093000286F0001A2D701C021F6F250006EF29E8E
:10094000756A746A21C673FF7F9C7F9E7F840F0146
:10095000550E7E6EAA0E7E6E7F827FB2FED77F948A
:100960000050F2120001C2EF05F0960EDB6F610E2F
:10097000216E250E226E236A5A0E246E080E266EF4
:10098000AD0E256E0601206B20510408D8A0EAD0D8
:100990002051100DF350036A270FE96E000E03205B
:1009A000EA6EEF6A2051100DF350036A060F216FB3
:1009B000000E0320226F0E0E2125016E000E222153
:1009C000036E0150210FE96E000E0320EA6ED890ED
:1009D0002035EF6E2051100DF350036A060F216F82
:1009E000000E0320226F010E2125016E000E222130
:1009F000036E0150210FE96E000E0320EA6E010E16
:100A0000EC6EED52F40EEF6E2051100DF350036AB0
:100A1000060F216F000E0320226F030E2125016EA9
:100A2000000E2221036E0150210FE96E000E0320FB
:100A3000EA6E010EEC6EED52F40EEF6E2051100DC9
:100A4000F350036A060F216F000E0320226F050E7C
:100A50002125016E000E2221036E0150210FE96E47
:100A6000000E0320EA6E020EEC6EED52BC0EEF6E2D
:100A70002051100DF350036A060F216F000E032062
:100A8000226F070E2125016E000E2221036E0150F8
:100A9000210FE96E000E0320EA6E030EEC6EED529C
:100AA000E80EEF6E2051100DF350036A060F216F10
:100AB000000E0320226F090E2125016E000E222157
:100AC000036E0150210FE96E000E0320EA6E010E45
:100AD000EC6EED522C0EEF6E2051100DF350036AA8
:100AE000060F216F000E0320226F0B0E2125016ED1
:100AF000000E2221036E0150210FE96E000E03202B
:100B0000EA6EEC6AED52EF6A2051100DF350036A61
:100B1000060F216F000E0320226F0D0E2125016E9E
:100B2000000E2221036E0150210FE96E000E0320FA
:100B3000EA6EEF6A2051100DF350036A060F216F21
:100B4000000E0320226F0F0E2125016E000E2221C0
:100B5000036E0150210FE96E000E0320EA6EEF6A6A
:100B6000202B12D7206B20510F080AE3036A205173
:100B7000770FE96E000E0320EA6EEF6A202BF3D7A1
:100B80000001CBD612000601210E206F236B020E4E
:100B9000226F256B20C624F6276B670E266F000197
:100BA00028D601C01FF6F2CF20F6F29E756A746A4D
:100BB0007F9C7F9E7F807350060120BFF28E1F5D59
:100BC00006E12150600803E221507A0803E20001A7
:100BD000CCDE060100019DEF09F09EAA02D005DCE3
:100BE000FCD7AE50949A8B9A9D8AF8EF05F0F5D712
:100BF000C40ED56EC00EF212A6EF09F093968A9637
:100C000093928A8206012151070803E393908A9008
:100C100004D093988A98080E215F215303E1030EB4
:100C2000256F25D0212D03D0130E256F20D0215103
:100C3000020803E10B0E256F1AD02151030803E1CE
:100C40001B0E256F14D02151040803E1070E256FF8
:100C50000ED02151050803E1170E256F08D0215150
:100C6000060803E10F0E256F02D01F0E256F246BBF
:100C7000245104080EE393968A9625B102D08A92F5
:100C800001D08A829392D890253393968A86242B1A
:100C9000EFD7236B226B246B24510D080EE3939640
:100CA0008A96938481B402D0D89001D0D88022371C
:100CB000233793968A86242BEFD7239B2399000111
:100CC00067DC060122C601F023C602F00001BEEF78
:100CD00009F006012F513103F3CF01F0F4CF00F0FA
:100CE0003203F350002630513103F3500020026EDE
:100CF00000011200D8B204D0060EEA6E3E0EE96E74
:100D0000006A016A026A036A06013E6B3F6B406B30
:100D1000416B3D513C113B113A112CE0200E426FCA
:100D2000D89036373737383739373E373F3740373F
:100D300041373D51415D08E13C51405D05E13B518A
:100D40003F5D02E13A513E5D0FE33A513E5F3B5158
:100D5000D8A03B3D3F5F3C51D8A03C3D405F3D515A
:100D6000D8A03D3D415FD8800036013602360336BB
:100D7000422FD6D73EC6EFFF3FC6ECFF40C6ECFF82
:100D800041C6ECFF00018BEF07F00601306B23C674
:100D90002FF6326B200E316F00019BDF02C030F660
:100DA00001C02FF6036A06012351E90FE96E030E15
:100DB0000320EA6E036AEFCF02F0D89002360336C2
:100DC00002500124016E305103220150E90FE96EF7
:100DD000010E0320EA6E25C6ECFFED5224C6EFFF9C
:100DE000036A2351E90FE96E030E0320EA6EEF2A2E
:100DF000036A2351E90FE96E030E0320EA6EEF50F8
:100E00000F0808E2036A2351E90FE96E030E03207D
:100E1000EA6EEF6A036A2351F90FE96E030E0320AD
:100E2000EA6EEF500F0808E3036A2351F90FE96EE9
:100E3000030E0320EA6EEF2A2D6B2C6B2B6B2A6BB3
:100E40002E6B036A2351F90FE96E030E0320EA6E3D
:100E5000EF502E5D2AE2306B23C62FF6326B200E48
:100E6000316F000136DF02C030F601C02FF6036A91
:100E700006012EC602F0D890023603360250012435
:100E8000016E305103220150E90FE96E010E03207B
:100E9000EA6EECCF03F0ED52EF502A2703502B23DC
:100EA000000E2C232D232E2BCCD7036A2351F90FB0
:100EB000E96E030E0320EA6EEFCF2FF6D8902F31A4
:100EC000006E016A026A036A00502A252F6F0150E2
:100ED0002B21306F02502C21316F03502D21326FA6
:100EE000036A2351F90FE96E030E0320EA6EEFCF78
:100EF0003AF6EACF35F6E9CF34F6D89232C639F66B
:100F000031C638F630C637F62FC636F63D6B3C6B29
:100F10003B6B0001EFD635C6EAFF34C6E9FF03C0DC
:100F200029F602C028F601C027F600C026F6060101
:100F300026C601F027C602F00001DAEF09F0090029
:100F4000F6CF21F6F7CF22F6F550A4A8FED7796E9A
:100F500021C6F6FF22C6F7FF0601202F01D002D0DE
:100F60000001EDD700011200EACF27F6E9CF26F6FF
:100F700006012039F009226F2227E20F236F320F7A
:100F8000256F20510F0B232723272527E90F246FD7
:100F9000242724271F390F0B2427252724372537FB
:100FA000251F25371F510F0B25272237070E216FCD
:100FB0000A0E24072527FDE323072427FDE3220744
:100FC0002327FDE321072227FDE3060EEA6E210E0B
:100FD000E96E070E2615269DE926000EEA22E95045
:100FE000250804E1EA50060801E1268DEF50006E65
:100FF00008E126BD06D026B90CD026B702D0200EB7
:1010000003D026872699300E00260050A4A8FED7CC
:10101000796EEE5026ADE3D7000112000601225191
:10102000016A215D03E221C600F00CD0006A080EBF
:10103000236F213700362251005CD8B0006E013694
:10104000232FF7D70001120001501FC621F6640EAE
:101050000601226F0001E2DF00C01FF60150300ED2
:1010600008E1060120A30ED020B70CD020B9200E35
:1010700004D0060120972099208101260150A4A8C0
:10108000FED7796E1FC621F60A0E226F0001C6DF59
:1010900000C01FF60150300E08E1060120B70BD04A
:1010A00020A109D020B9200E000101260150A4A8DA
:1010B000FED7796E0601300E1F271F51A4A8FED758
:1010C000796E000112000900F5520DE0F6CF1FF60F
:1010D000F7CF20F6F550A4A8FED7796E1FC6F6FF0D
:1010E00020C6F7FFF0D71200C580C5B0FED71FC6D7
:1010F00024F6CDEC02F001C020F6C584C5B4FED7BD
:101100000601205303E1010E016E02D0000E016EB4
:1011100000011200060120BF10D00F0E006E1F3913
:1011200000160A0E005C03E2300E002602D02051A9
:1011300000260050A4A8FED7796E0F0E1F170A0EC6
:101140001F5D02E2300E02D0209F20511F271F5149
:10115000A4A8FED7796E00011200C69CC586C5B64C
:10116000FED700B0C59A00A0C58AC588C5B8FED70D
:10117000C9CF01F01200C580C5B0FED70400090E2A
:10118000006E002EFED700009A0E0601246F0001AB
:10119000CDEC02F006011F35216F21372137F80E03
:1011A000211721C624F60001CDEC02F0C582C5B29C
:1011B000FED70400090E006E002EFED700009B0E25
:1011C0000601246F0001CDEC02F0006AC6DF01C009
:1011D00020F6C584C5B4FED7060120C601F0000183
:1011E0001200050E06011F6F0001C5DF0150010B43
:1011F000016E5EEF0AF00601216B1FC622F60001A8
:10120000DBEC02F09DEF0AF0C580C5B0FED704000C
:10121000090E006E002EFED700001FC624F6CDEC8E
:1012200002F020C624F6CDEC02F0C582C5B2FED78E
:101230000400090E006E002EFED7000006011F51AB
:101240000109236F246F0001CDEC02F0010E006E46
:1012500084DF01C021F6006A80DF01C022F6C58468
:10126000C5B4FED721C603F0060122C601F003C0B3
:1012700002F0000116EF0BF0F86AD09E078E620EA6
:10128000D36E9B6A646A206AA7960C0EAF6EA20E9C
:10129000AC6E900EAB6EB986220E7B6E000E7C6E2D
:1012A000A60EBA6E900EA66E94869488040EC86E32
:1012B000280EC66EC79EC79CE291E36B06011A6BAF
:1012C000196B0F015C51800B5C6F000E5D6FC19656
:1012D000C198C19A5E6B5F6B0DD002001A0000C10D
:1012E000402100FF41E900FFC000FFC000FFC00037
:1012F00034C00000000EF86E120EF76EDA0EF66EB5
:101300000900F550006E000A13E00900F550016E67
:10131000E8BE05D03F0BEA6E0900F5CFE9FF01BC3E
:10132000090001AC0900F5CFEEFF004EE9D7F9D76F
:10133000F86A00014AEF03F026D422507F0802E247
:10134000B5EC04F0AB8EAB88AC8A51D406011B6BB4
:101350001B5113083DE31C6B1C510F0837E3D89059
:101360001C35036A9A0F016E000E032201C01FF69E
:1013700003C020F61CC621F6000140D402C022F6AC
:1013800001C021F6036A06011C51770FE96E000EB9
:101390000320EA6EEF50036A006EE8BE03062127C1
:1013A000035022231CC623F622C625F621C624F6A6
:1013B0000001EBD420C6EAFF1FC6E9FF02C0ECFF24
:1013C000ED5201C0EFFF06011C2BC6D71B2BC0D767
:1013D000880EF66E040EF76E0C0E206F0001AFDD66
:1013E0002450A4A8FED7796E100EE96E26C020F610
:1013F00025C01FF6B9DD990EF66E040EF76E480E85
:101400000601206F00019BDD22C01FF61B0E0601A6
:10141000206F000119DE290EA4A8FED7796E200ED8
:10142000A4A8FED7796EEA0EF66E040EF76E4BDEB8
:101430000D0EA4A8FED7796E0A0EA4A8FED7796E69
:10144000100E06011B6F1B51EF0828E31BC61FF689
:1014500000014ADE01521EE0F40EF66E040EF76E35
:10146000140E0601206F00016ADD1BC61FF6570E21
:101470000601206F00014EDE0C0EF66E050EF76EB3
:10148000040E0601206F00015ADD120EF66E050EE5
:10149000F76E19DE020E06011B27D5D79A0E1F6FB5
:1014A000000122DE01C087F0DB6BDBC0DCF006014F
:1014B0001B6B04000001875320E093D601521DE00E
:1014C00006011F6B000157DE015001C01FF61E0E02
:1014D000F66E050EF76E130E0601206F00012FDD6C
:1014E00006011F51A4A8FED7796E330EF66E050EC5
:1014F000F76E030E206F000122DDD953D8B4DFD080
:10150000C80EDB6F380EF66E050EF76E0C0E060178
:10151000206F000114DDD951A4A8FED7796E460EC4
:10152000F66E050EF76E030E0601206F000107DD53
:10153000875303E0D9C01FF65ED6D96BC580C5B00E
:10154000FED70400090E006E002EFED70000360EF6
:101550000601246F0001CDEC02F00601246B0001AE
:10156000CDEC02F0C582C5B2FED70400090E006EB4
:10157000002EFED70000370E0601246F0001CDECCF
:1015800002F006011B6B1B510F0841E3010E006EB8
:101590000001E3DD01C01CF64A0EF66E050EF76E83
:1015A0000E0E0601206F0001CADC1BC61FF6570E87
:1015B0000601206F0001AEDD5C0EF66E050EF76EC3
:1015C000040E0601206F0001BADC1CC61FF6570E80
:1015D0000601206F00019EDD200EA4A8FED7796EC3
:1015E000280EA4A8FED7796E1CC61FF61B0E060196
:1015F000206F000129DD680EF66E050EF76E030EF2
:101600000601206F00019BDC06011B2BBCD7006A82
:101610000001A3DD040E06011B6F1B5107084CE3FC
:10162000360E1F6F1BC620F60001EED502C01EF657
:1016300001C01DF66C0EF66E050EF76E0D0E06015E
:10164000206F00017CDC1BC61FF6570E0601206FC1
:10165000000160DD7D0EF66E050EF76E040E0601CC
:10166000206F00016CDC1EC61FF6570E0601206FAE
:10167000000150DD1DC61FF6570E0601206F000148
:1016800049DD200EA4A8FED7796E280EA4A8FED7A7
:10169000796E100EE96E1EC620F61DC61FF664DCBC
:1016A0008B0EF66E050EF76E030E0601206F00011D
:1016B00046DC06011B2BB1D7929089700001060110
:0416C000F8D6FFD782
:020000040030CA
:0E00000015086934000910000FC000E0004030
:00000001FF
;PIC18F25K80
;CRC=4E42  CREATED="13-Jan-22 13:49"
